{
  "contractName": "CrowdsaleHandshake",
  "abi": [
    {
      "constant": true,
      "inputs": [
        {
          "name": "",
          "type": "uint256"
        }
      ],
      "name": "cs",
      "outputs": [
        {
          "name": "payee",
          "type": "address"
        },
        {
          "name": "totalValue",
          "type": "uint256"
        },
        {
          "name": "balance",
          "type": "uint256"
        },
        {
          "name": "goal",
          "type": "uint256"
        },
        {
          "name": "saletime",
          "type": "uint256"
        },
        {
          "name": "deadline",
          "type": "uint256"
        },
        {
          "name": "lastIncrease",
          "type": "uint256"
        },
        {
          "name": "state",
          "type": "uint8"
        },
        {
          "name": "m",
          "type": "uint256"
        }
      ],
      "payable": false,
      "stateMutability": "view",
      "type": "function"
    },
    {
      "anonymous": false,
      "inputs": [
        {
          "indexed": false,
          "name": "hid",
          "type": "uint256"
        },
        {
          "indexed": false,
          "name": "state",
          "type": "uint8"
        },
        {
          "indexed": false,
          "name": "offchain",
          "type": "bytes32"
        }
      ],
      "name": "__init",
      "type": "event"
    },
    {
      "anonymous": false,
      "inputs": [
        {
          "indexed": false,
          "name": "hid",
          "type": "uint256"
        },
        {
          "indexed": false,
          "name": "state",
          "type": "uint8"
        },
        {
          "indexed": false,
          "name": "balance",
          "type": "uint256"
        },
        {
          "indexed": false,
          "name": "offchain",
          "type": "bytes32"
        }
      ],
      "name": "__shake",
      "type": "event"
    },
    {
      "anonymous": false,
      "inputs": [
        {
          "indexed": false,
          "name": "hid",
          "type": "uint256"
        },
        {
          "indexed": false,
          "name": "state",
          "type": "uint8"
        },
        {
          "indexed": false,
          "name": "balance",
          "type": "uint256"
        },
        {
          "indexed": false,
          "name": "offchain",
          "type": "bytes32"
        }
      ],
      "name": "__unshake",
      "type": "event"
    },
    {
      "anonymous": false,
      "inputs": [
        {
          "indexed": false,
          "name": "hid",
          "type": "uint256"
        },
        {
          "indexed": false,
          "name": "state",
          "type": "uint8"
        },
        {
          "indexed": false,
          "name": "offchain",
          "type": "bytes32"
        }
      ],
      "name": "__cancel",
      "type": "event"
    },
    {
      "anonymous": false,
      "inputs": [
        {
          "indexed": false,
          "name": "hid",
          "type": "uint256"
        },
        {
          "indexed": false,
          "name": "state",
          "type": "uint8"
        },
        {
          "indexed": false,
          "name": "offchain",
          "type": "bytes32"
        }
      ],
      "name": "__stop",
      "type": "event"
    },
    {
      "anonymous": false,
      "inputs": [
        {
          "indexed": false,
          "name": "hid",
          "type": "uint256"
        },
        {
          "indexed": false,
          "name": "state",
          "type": "uint8"
        },
        {
          "indexed": false,
          "name": "offchain",
          "type": "bytes32"
        }
      ],
      "name": "__refund",
      "type": "event"
    },
    {
      "anonymous": false,
      "inputs": [
        {
          "indexed": false,
          "name": "hid",
          "type": "uint256"
        },
        {
          "indexed": false,
          "name": "amount",
          "type": "uint256"
        },
        {
          "indexed": false,
          "name": "offchain",
          "type": "bytes32"
        }
      ],
      "name": "__withdraw",
      "type": "event"
    },
    {
      "constant": true,
      "inputs": [
        {
          "name": "hid",
          "type": "uint256"
        }
      ],
      "name": "getState",
      "outputs": [
        {
          "name": "",
          "type": "uint8"
        }
      ],
      "payable": false,
      "stateMutability": "view",
      "type": "function"
    },
    {
      "constant": false,
      "inputs": [
        {
          "name": "goal",
          "type": "uint256"
        },
        {
          "name": "saletime",
          "type": "uint256"
        },
        {
          "name": "deadline",
          "type": "uint256"
        },
        {
          "name": "offchain",
          "type": "bytes32"
        }
      ],
      "name": "initCrowdsale",
      "outputs": [],
      "payable": false,
      "stateMutability": "nonpayable",
      "type": "function"
    },
    {
      "constant": false,
      "inputs": [
        {
          "name": "hid",
          "type": "uint256"
        },
        {
          "name": "offchain",
          "type": "bytes32"
        }
      ],
      "name": "shake",
      "outputs": [],
      "payable": true,
      "stateMutability": "payable",
      "type": "function"
    },
    {
      "constant": false,
      "inputs": [
        {
          "name": "hid",
          "type": "uint256"
        },
        {
          "name": "offchain",
          "type": "bytes32"
        }
      ],
      "name": "unshake",
      "outputs": [],
      "payable": false,
      "stateMutability": "nonpayable",
      "type": "function"
    },
    {
      "constant": false,
      "inputs": [
        {
          "name": "hid",
          "type": "uint256"
        },
        {
          "name": "offchain",
          "type": "bytes32"
        }
      ],
      "name": "cancel",
      "outputs": [],
      "payable": false,
      "stateMutability": "nonpayable",
      "type": "function"
    },
    {
      "constant": false,
      "inputs": [
        {
          "name": "hid",
          "type": "uint256"
        },
        {
          "name": "offchain",
          "type": "bytes32"
        }
      ],
      "name": "stop",
      "outputs": [],
      "payable": false,
      "stateMutability": "nonpayable",
      "type": "function"
    },
    {
      "constant": false,
      "inputs": [
        {
          "name": "hid",
          "type": "uint256"
        },
        {
          "name": "offchain",
          "type": "bytes32"
        }
      ],
      "name": "refund",
      "outputs": [],
      "payable": false,
      "stateMutability": "nonpayable",
      "type": "function"
    },
    {
      "constant": true,
      "inputs": [
        {
          "name": "hid",
          "type": "uint256"
        }
      ],
      "name": "additionalPettyCash",
      "outputs": [
        {
          "name": "",
          "type": "uint256"
        }
      ],
      "payable": false,
      "stateMutability": "view",
      "type": "function"
    },
    {
      "constant": false,
      "inputs": [
        {
          "name": "hid",
          "type": "uint256"
        },
        {
          "name": "offchain",
          "type": "bytes32"
        }
      ],
      "name": "withdraw",
      "outputs": [],
      "payable": false,
      "stateMutability": "nonpayable",
      "type": "function"
    }
  ],
  "bytecode": "0x6060604052341561000f57600080fd5b6113d18061001e6000396000f3006060604052600436106100a4576000357c0100000000000000000000000000000000000000000000000000000000900463ffffffff16806335a7b5dc146100a95780633b0cbd941461015257806343f24af51461018257806344c9af28146101b257806356c8a2db146101f757806371eedb881461022e578063a82042211461025e578063a8d2021a146102a0578063b09b2f85146102d0578063eafb64d5146102f5575b600080fd5b34156100b457600080fd5b6100ca6004808035906020019091905050610325565b604051808a73ffffffffffffffffffffffffffffffffffffffff1673ffffffffffffffffffffffffffffffffffffffff16815260200189815260200188815260200187815260200186815260200185815260200184815260200183600281111561013057fe5b60ff168152602001828152602001995050505050505050505060405180910390f35b341561015d57600080fd5b6101806004808035906020019091908035600019169060200190919050506103af565b005b341561018d57600080fd5b6101b06004808035906020019091908035600019169060200190919050506104e5565b005b34156101bd57600080fd5b6101d36004808035906020019091905050610773565b604051808260028111156101e357fe5b60ff16815260200191505060405180910390f35b341561020257600080fd5b61021860048080359060200190919050506107a9565b6040518082815260200191505060405180910390f35b341561023957600080fd5b61025c6004808035906020019091908035600019169060200190919050506108e0565b005b341561026957600080fd5b61029e600480803590602001909190803590602001909190803590602001909190803560001916906020019091905050610b58565b005b34156102ab57600080fd5b6102ce600480803590602001909190803560001916906020019091905050610d26565b005b6102f3600480803590602001909190803560001916906020019091905050610ec5565b005b341561030057600080fd5b61032360048080359060200190919080356000191690602001909190505061105e565b005b60008181548110151561033457fe5b90600052602060002090600a02016000915090508060000160009054906101000a900473ffffffffffffffffffffffffffffffffffffffff16908060010154908060020154908060030154908060040154908060050154908060060154908060070160009054906101000a900460ff16908060080154905089565b6000826000818154811015156103c157fe5b90600052602060002090600a020160000160009054906101000a900473ffffffffffffffffffffffffffffffffffffffff1673ffffffffffffffffffffffffffffffffffffffff163373ffffffffffffffffffffffffffffffffffffffff1614151561042c57600080fd5b60008481548110151561043b57fe5b90600052602060002090600a0201915060028260070160006101000a81548160ff0219169083600281111561046c57fe5b02179055507fe18634326e882acaa1a0e3829b8608959be9172f83c5d9f7801de1b5a2d3cc27848360070160009054906101000a900460ff1685604051808481526020018360028111156104bc57fe5b60ff1681526020018260001916600019168152602001935050505060405180910390a150505050565b60008083600080828154811015156104f957fe5b90600052602060002090600a020160090160003373ffffffffffffffffffffffffffffffffffffffff1673ffffffffffffffffffffffffffffffffffffffff1681526020019081526020016000206000015411151561055757600080fd5b60008581548110151561056657fe5b90600052602060002090600a020192508260090160003373ffffffffffffffffffffffffffffffffffffffff1673ffffffffffffffffffffffffffffffffffffffff1681526020019081526020016000206000015491508260040154421080156105d4575081836002015410155b15156105df57600080fd5b60008360090160003373ffffffffffffffffffffffffffffffffffffffff1673ffffffffffffffffffffffffffffffffffffffff16815260200190815260200160002060000181905550818360020160008282540392505081905550826002015483600101819055506001600281111561065557fe5b8360070160009054906101000a900460ff16600281111561067257fe5b148015610686575082600301548360020154105b156106b25760008360070160006101000a81548160ff021916908360028111156106ac57fe5b02179055505b3373ffffffffffffffffffffffffffffffffffffffff166108fc839081150290604051600060405180830381858888f1935050505015156106f257600080fd5b7fa4a7ed41433d5a4d266c4bbcee340993acd057cc8256571f20f6db4ae297304f858460070160009054906101000a900460ff168560020154876040518085815260200184600281111561074257fe5b60ff168152602001838152602001826000191660001916815260200194505050505060405180910390a15050505050565b6000808281548110151561078357fe5b90600052602060002090600a020160070160009054906101000a900460ff169050919050565b60008060008060008093506000868154811015156107c357fe5b90600052602060002090600a020160040154421015156108d4574292506000868154811015156107ef57fe5b90600052602060002090600a020160050154915060008681548110151561081257fe5b90600052602060002090600a02016006015490508183101515610833578192505b6000811415610892576064601e60008881548110151561084f57fe5b90600052602060002090600a0201600201540281151561086b57fe5b04935060008681548110151561087d57fe5b90600052602060002090600a02016004015490505b808211156108d357808203846000888154811015156108ad57fe5b90600052602060002090600a02016002015403828503028115156108cd57fe5b04840193505b5b83945050505050919050565b6000806000806000868154811015156108f557fe5b90600052602060002090600a020193506000600281111561091257fe5b8460070160009054906101000a900460ff16600281111561092f57fe5b148015610940575083600401544210155b8015610953575083600301548460020154105b1561097f5760028460070160006101000a81548160ff0219169083600281111561097957fe5b02179055505b8360070160009054906101000a900460ff16925060028081111561099f57fe5b8360028111156109ab57fe5b1415610b50578360090160003373ffffffffffffffffffffffffffffffffffffffff1673ffffffffffffffffffffffffffffffffffffffff168152602001908152602001600020600001549150836001015484600201548302811515610a0d57fe5b04905083600201548111158015610a28575083600101548211155b1515610a3357600080fd5b80846002016000828254039250508190555081846001016000828254039250508190555060008460090160003373ffffffffffffffffffffffffffffffffffffffff1673ffffffffffffffffffffffffffffffffffffffff168152602001908152602001600020600001819055503373ffffffffffffffffffffffffffffffffffffffff166108fc829081150290604051600060405180830381858888f193505050501515610ae157600080fd5b7fadd42748782b14b5e685863800eceaedf8f3534dd06473719669ee0f0ce9c525868560070160009054906101000a900460ff168760405180848152602001836002811115610b2c57fe5b60ff1681526020018260001916600019168152602001935050505060405180910390a15b505050505050565b8282111515610b6657600080fd5b60008054806001018281610b7a91906112e1565b91600052602060002090600a02016000610120604051908101604052803373ffffffffffffffffffffffffffffffffffffffff1681526020016000815260200160008152602001888152602001600188024201815260200160018702420181526020016000815260200160006002811115610bf157fe5b81526020016000815250909190915060008201518160000160006101000a81548173ffffffffffffffffffffffffffffffffffffffff021916908373ffffffffffffffffffffffffffffffffffffffff1602179055506020820151816001015560408201518160020155606082015181600301556080820151816004015560a0820151816005015560c0820151816006015560e08201518160070160006101000a81548160ff02191690836002811115610ca757fe5b021790555061010082015181600801555050507f584229930f00ad9fc2fa6226de458c932992a17ad3ee07e425a6d62178ece0cb60016000805490500360008360405180848152602001836002811115610cfd57fe5b60ff1681526020018260001916600019168152602001935050505060405180910390a150505050565b60008083600081815481101515610d3957fe5b90600052602060002090600a020160000160009054906101000a900473ffffffffffffffffffffffffffffffffffffffff1673ffffffffffffffffffffffffffffffffffffffff163373ffffffffffffffffffffffffffffffffffffffff16141515610da457600080fd5b600085815481101515610db357fe5b90600052602060002090600a0201925060016002811115610dd057fe5b8360070160009054906101000a900460ff166002811115610ded57fe5b148015610dfe575082600401544210155b1515610e0957600080fd5b610e12856107a9565b91504283600601819055508183600201600082825403925050819055503373ffffffffffffffffffffffffffffffffffffffff166108fc839081150290604051600060405180830381858888f193505050501515610e6f57600080fd5b7fdadf2568e29c3e88d78dc144bd8a1aa52a110f4619f964f33b1889b3eff4de05858386604051808481526020018381526020018260001916600019168152602001935050505060405180910390a15050505050565b60008083815481101515610ed557fe5b90600052602060002090600a02019050600034118015610ef85750806004015442105b1515610f0357600080fd5b348160090160003373ffffffffffffffffffffffffffffffffffffffff1673ffffffffffffffffffffffffffffffffffffffff168152602001908152602001600020600001600082825401925050819055503481600201600082825401925050819055508060020154816001018190555060006002811115610f8157fe5b8160070160009054906101000a900460ff166002811115610f9e57fe5b148015610fb357508060030154816002015410155b15610fdf5760018160070160006101000a81548160ff02191690836002811115610fd957fe5b02179055505b7f4b01ba75f4516c27f88e663890c3c0a2186ba3bd58df392921c15182779c65f6838260070160009054906101000a900460ff168360020154856040518085815260200184600281111561102f57fe5b60ff168152602001838152602001826000191660001916815260200194505050505060405180910390a1505050565b6000826000808281548110151561107157fe5b90600052602060002090600a020160090160003373ffffffffffffffffffffffffffffffffffffffff1673ffffffffffffffffffffffffffffffffffffffff168152602001908152602001600020600001541115156110cf57600080fd5b6000848154811015156110de57fe5b90600052602060002090600a02019150600160028111156110fb57fe5b8260070160009054906101000a900460ff16600281111561111857fe5b148015611129575081600401544210155b80156111385750816005015442105b8015611188575060008260090160003373ffffffffffffffffffffffffffffffffffffffff1673ffffffffffffffffffffffffffffffffffffffff16815260200190815260200160002060010154145b151561119357600080fd5b60018260090160003373ffffffffffffffffffffffffffffffffffffffff1673ffffffffffffffffffffffffffffffffffffffff168152602001908152602001600020600101819055508160090160003373ffffffffffffffffffffffffffffffffffffffff1673ffffffffffffffffffffffffffffffffffffffff16815260200190815260200160002060000154826008016000828254019250508190555081600101546002836008015402111561126d5760028260070160006101000a81548160ff0219169083600281111561126757fe5b02179055505b7f2c14f956ce5485dce5b0eee9b6b9dc06b40742167e9eda85e72d5ff3a0f506ac848360070160009054906101000a900460ff1685604051808481526020018360028111156112b857fe5b60ff1681526020018260001916600019168152602001935050505060405180910390a150505050565b81548183558181151161130e57600a0281600a02836000526020600020918201910161130d9190611313565b5b505050565b6113a291905b8082111561139e57600080820160006101000a81549073ffffffffffffffffffffffffffffffffffffffff02191690556001820160009055600282016000905560038201600090556004820160009055600582016000905560068201600090556007820160006101000a81549060ff0219169055600882016000905550600a01611319565b5090565b905600a165627a7a72305820fb266924961ecfe2d1733d73c89d99e49eddb501c721327c583667e70d02803d0029",
  "source": "pragma solidity ^0.4.18;\n\n/**\n * Contract represents a crowdsale as a handshake between a payee (crowdsale owner/creator) with multiple payers (crowdsale backers).\n * After creating the handshake, for a fixed duration, users can fund the crowdsale by shaking.\n * If the handshake doesn't meet the goal after the sale time, users can get a full refund.\n * Otherwise, for a fixed duration after the sale, the fund will be distribute linearly to the crowdsale creator for the to build the  * products.\n * At all time, the backers can vote to cancel the crowdsale if they are not happy with the progress. If the total contributions of the * voted users exceed half the raised fund, the crowdsale is cancelled.\n * The remaining fund that hasn't been distributed to the creator will be refunded to the backers proportionally to there initial  * * * contribution.\n */\ncontract CrowdsaleHandshake {\n    struct Payer {\n        uint value;  // total contribution, in wei\n        uint vote;  // 0: not voted, 1: cancel\n    }\n\n    enum S { Inited, Shaked, Cancelled }\n\n    struct Crowdsale {\n        address payee;\n        uint totalValue;  // total contribution of all backers\n        uint balance;  // current funds (in Weis) of the crowdsale\n        uint goal;  // in Weis\n\n        uint saletime;  // before saletime, users can back crowdfund and creator cannot withdraw from it\n        uint deadline;  // the fund is distributed linearly to the creator between saletime and deadline\n        uint lastIncrease;  // last withdraw\n\n        S state;\n        uint m;  // #votes (to cancel crowdsale)\n        mapping(address => Payer) payers;\n    }\n\n    Crowdsale[] public cs;\n\n    modifier onlyPayee(uint hid) {\n        require(msg.sender == cs[hid].payee);\n        _;\n    }\n\n    modifier onlyPayer(uint hid) {\n        require(cs[hid].payers[msg.sender].value > 0);\n        _;\n    }\n\n    function getState(uint hid) public view returns (S) {\n        return cs[hid].state;\n    }\n\n    event __init(uint hid, S state, bytes32 offchain);\n\n    /**\n     * @dev Create a new crowdsale.\n     * @param goal minimum Weis of the crowdsale to pass funding stage.\n     * @param saletime duration (in seconds) for user to fund the crowdsale.\n     * @param deadline duration (in seconds) to distribute the fund to the crowdsale creator.\n     * @param offchain key to the offchain database.\n     */\n    function initCrowdsale(uint goal, uint saletime, uint deadline, bytes32 offchain) public {\n        require(deadline > saletime);\n        cs.push(Crowdsale(msg.sender, 0, 0, goal,\n                          now + saletime * 1 seconds,\n                          now + deadline * 1 seconds,\n                          0,\n                          S.Inited, 0));\n        __init(cs.length - 1, S.Inited, offchain);\n    }\n\n    event __shake(uint hid, S state, uint balance, bytes32 offchain);\n\n    /**\n     * @dev Fund the crowdsale with Ether.\n     * @param hid id of the crowdsale to fund.\n     * @param offchain key to the offchain database.\n     */\n    function shake(uint hid, bytes32 offchain) public payable {\n        Crowdsale storage c = cs[hid];\n        require(msg.value > 0 && now < c.saletime);  // not accept any shake after saletime\n        c.payers[msg.sender].value += msg.value;\n        c.balance += msg.value;\n        c.totalValue = c.balance;  // before payee withdraws, the total contribution is also the balance of the crowdsale\n        if (c.state == S.Inited && c.balance >= c.goal) {\n            c.state = S.Shaked;\n        }\n        __shake(hid, c.state, c.balance, offchain);\n    }\n\n    event __unshake(uint hid, S state, uint balance, bytes32 offchain);\n\n    /**\n     * @dev Cancel a crowdsale funding if it's before saletime.\n     */\n    function unshake(uint hid, bytes32 offchain) public onlyPayer(hid) {\n        Crowdsale storage c = cs[hid];\n        uint val = c.payers[msg.sender].value;\n        require(now < c.saletime && c.balance >= val);\n\n        // Before saletime, creator cannot withdraw; therefore we make full refund to the backer\n        c.payers[msg.sender].value = 0;\n        c.balance -= val;\n        c.totalValue = c.balance;\n        if (c.state == S.Shaked && c.balance < c.goal) {\n            c.state = S.Inited;\n        }\n        msg.sender.transfer(val);\n        __unshake(hid, c.state, c.balance, offchain);\n    }\n\n    event __cancel(uint hid, S state, bytes32 offchain);\n\n    /**\n     * @dev Vote to cancel a crowdsale.\n     */\n    function cancel(uint hid, bytes32 offchain) public onlyPayer(hid) {\n        Crowdsale storage c = cs[hid];\n\n        // Only allow to vote if the goal is met and the crowdfund is in the stage of building product\n        require(c.state == S.Shaked &&\n                now >= c.saletime && now < c.deadline &&\n                c.payers[msg.sender].vote == 0);\n        c.payers[msg.sender].vote = 1;\n        c.m += c.payers[msg.sender].value;\n        if (c.m * 2 > c.totalValue) {  // over 50% of the total contribution of all backers\n            c.state = S.Cancelled;\n        }\n        __cancel(hid, c.state, offchain);\n    }\n\n    event __stop(uint hid, S state, bytes32 offchain);\n\n    /**\n     * @dev Creator stops the crowdsale.\n     */\n    function stop(uint hid, bytes32 offchain) public onlyPayee(hid) {\n        Crowdsale storage c = cs[hid];\n        c.state = S.Cancelled;\n        __stop(hid, c.state, offchain);\n    }\n\n    event __refund(uint hid, S state, bytes32 offchain);\n\n    /**\n     * @dev Get a refund from a cancelled crowdsale.\n     */\n    function refund(uint hid, bytes32 offchain) public {\n        // Cancel crowdfund if goal not reached after saletime\n        Crowdsale storage c = cs[hid];\n        if (c.state == S.Inited && now >= c.saletime && c.balance < c.goal) {\n            c.state = S.Cancelled;\n        }\n\n        S s = c.state;\n        if (s == S.Cancelled) {\n            uint val = c.payers[msg.sender].value;\n            // Distribute the amount left in the crowdsale based on the user's initial contribution.\n            // E.g., the crowdsale raised 10 ETH (totalValue) with 3 ETH funded by msg.sender and the creator already used 4 ETH,\n            // they will be refund back (10 - 4) * (3 / 10) = 1.8 ETH\n            uint amount = val * c.balance / c.totalValue;\n            require(amount <= c.balance && val <= c.totalValue);\n            c.balance -= amount;\n            c.totalValue -= val;\n            c.payers[msg.sender].value = 0;\n\n            msg.sender.transfer(amount);\n            __refund(hid, c.state, offchain);\n        }\n    }\n\n    /**\n     * @dev Get the additional Weis available for the crowdsale creator to withdraw right now.\n     */\n    function additionalPettyCash(uint hid) public view returns (uint) {\n        uint amount = 0;\n        if (now >= cs[hid].saletime) {\n            uint x = now;\n            uint deadline = cs[hid].deadline;\n            uint lastIncrease = cs[hid].lastIncrease;\n            if (x >= deadline)\n                x = deadline;\n\n            // First withdrawal: get at least 30% of the fund\n            if (lastIncrease == 0) {\n                amount = cs[hid].balance * 30 / 100;\n                lastIncrease = cs[hid].saletime;\n            }\n\n            // Distribute linearly between saletime and deadline\n            if (deadline > lastIncrease)\n                amount += (x - lastIncrease) * (cs[hid].balance - amount) / (deadline - lastIncrease);\n        }\n        return amount;\n    }\n\n    event __withdraw(uint hid, uint amount, bytes32 offchain);\n\n    /**\n     * @dev Transfer all available funds right now to the crowdsale creator.\n     */\n    function withdraw(uint hid, bytes32 offchain) public onlyPayee(hid) {\n        Crowdsale storage c = cs[hid];\n        require(c.state == S.Shaked && now >= c.saletime);\n        uint amount = additionalPettyCash(hid);\n        c.lastIncrease = now;\n        c.balance -= amount;  // decrease the balance but not the total amount raised\n        msg.sender.transfer(amount);\n        __withdraw(hid, amount, offchain);\n    }\n}\n",
  "sourcePath": "/Users/nqhieu84/Work/autonomous/src/handshake/contracts/core/CrowdsaleHandshake.sol",
  "compiler": {
    "name": "solc",
    "version": "0.4.19+commit.c4cbbb05.Emscripten.clang"
  },
  "schemaVersion": "1.0.1",
  "updatedAt": "2018-05-11T05:45:41.009Z"
}